S00C00006C6364312E73726563B4
S11300000C942A000C943F000C943F000C943F0085
S11300100C943F000C943F000C943F000C943F0060
S11300200C943F000C943F000C943F000C943F0050
S11300300C943F000C943F000C943F000C943F0040
S11300400C943F000C943F000C943F000C943F0030
S11300500C943F0011241FBECFE5D8E0DEBFCDBF16
S113006010E0A0E6B0E0EEE4F6E002C005900D92E8
S1130070AC36B107D9F70E94E8010C9425030C941F
S11300800000823419F118F4813439F0089583346E
S1130090B1F1843409F44CC00895413059F42AB3C1
S11300A081E090E002C0880F991F6A95E2F7822BE5
S11300B08ABB08952AB381E090E002C0880F991F9B
S11300C06A95E2F7809582238ABB0895413059F4FA
S11300D027B381E090E002C0880F991F6A95E2F788
S11300E0822B87BB089527B381E090E002C0880F7C
S11300F0991F6A95E2F78095822387BB0895413062
S113010059F424B381E090E002C0880F991F6A95E6
S1130110E2F7822B84BB089524B381E090E002C00F
S1130120880F991F6A95E2F78095822384BB08950E
S1130130413059F421B381E090E002C0880F991F47
S11301406A95E2F7822B81BB089521B381E090E0A8
S113015002C0880F991F6A95E2F78095822381BBBC
S11301600895823419F118F4813439F008958334F0
S1130170B1F1843409F44CC00895413059F42BB3DF
S113018081E090E002C0880F991F6A95E2F7822B04
S11301908BBB08952BB381E090E002C0880F991FB8
S11301A06A95E2F7809582238BBB0895413059F418
S11301B028B381E090E002C0880F991F6A95E2F7A6
S11301C0822B88BB089528B381E090E002C0880F99
S11301D0991F6A95E2F78095822388BB0895413080
S11301E059F425B381E090E002C0880F991F6A9505
S11301F0E2F7822B85BB089525B381E090E002C02D
S1130200880F991F6A95E2F78095822385BB08952C
S1130210413059F422B381E090E002C0880F991F65
S11302206A95E2F7822B82BB089522B381E090E0C5
S113023002C0880F991F6A95E2F78095822382BBDA
S11302400895823459F018F4813431F008958334D8
S113025039F0843439F008956ABB089567BB089572
S113026064BB089561BB0895823459F018F4813455
S113027031F00895833439F0843439F008956BBB38
S1130280089568BB089565BB089562BB089541E075
S113029060E082E40E94B1008FE99FE00197F1F7EA
S11302A000C0000040E060E082E40E94B1008FE9F9
S11302B09FE00197F1F700C0000008950E94340107
S11302C040E061E082E40E94B1000E9447018FECAB
S11302D097E00197F1F700C0000008951F93CF93B2
S11302E0DF93C82F162FD42F2FEF81EE94E02150E7
S11302F080409040E1F700C000006FEF8C2F0E9417
S1130300210141E06D2F812F0E94410061E06D0FBA
S113031041E0812F0E94410062E06D0F41E0812F96
S11303200E94410068E38C2F0E945E0161E08C2FE3
S11303300E945E018FE19EE40197F1F700C0000086
S11303406EE08C2F0E945E0166E08C2F0E945E019D
S1130350DF91CF911F9108950E94340141E061E043
S113036082E40E94B1000E9447018FEC97E001975C
S1130370F1F700C0000008951F93CF93DF93EB01C2
S11303806881662341F0182F2196812F0E94AC01C9
S113039069916111FACFDF91CF911F9108959FEF79
S11303A0960F923070F49FEF940F903160F46130A7
S11303B019F42FE7240F08C0623031F42FEB240F17
S11303C003C020E801C020E8622F0E945E01089566
S11303D040E050E062E481E40E946E0160E670E077
S11303E081E40E94BC0160E481E40E945E0168E152
S11303F081E40E94AC0167E081E40E94AC0169E100
S113040081E40E94AC016FE181E40E94AC0160E0F0
S113041081E40E94AC0160E081E40E94AC0160E0F0
S113042081E40E94AC0160E081E40E94AC0168E1D7
S113043081E40E94AC016CE081E40E94AC0163E0C1
S113044081E40E94AC016FE181E40E94AC0160E0B0
S113045081E40E94AC0160E081E40E94AC0160E0B0
S113046081E40E94AC0160E081E40E94AC0160E0A0
S113047081E40E94AC0160E081E40E94AC0160E090
S113048081E40E94AC0161E181E40E94AC0161E17C
S113049081E40E94AC016FE181E40E94AC016FE150
S11304A081E40E94AC0160E081E40E94AC0160E060
S11304B081E40E94AC016FE081E40E94AC0169E038
S11304C081E40E94AC016FE181E40E94AC0160E030
S11304D081E40E94AC0160E081E40E94AC0160E030
S11304E081E40E94AC0160E081E40E94AC0168E117
S11304F081E40E94AC016CE081E40E94AC0163E001
S113050081E40E94AC016FE181E40E94AC0160E0EF
S113051081E40E94AC0166E081E40E94AC0160E0E9
S113052081E40E94AC0160E081E40E94AC0163E0DC
S113053081E40E94AC0163E081E40E94AC0163E0C9
S113054081E40E94AC016FE181E40E94AC0160E0AF
S113055081E40E94AC0160E081E40E94AC0160E0AF
S113056081E40E94AC0160E081E40E94AC0160E09F
S113057081E40E94AC0163E081E40E94AC0163E089
S113058081E40E94AC0162E181E40E94AC0162E179
S113059081E40E94AC016EE181E40E94AC016EE151
S11305A081E40E94AC0160E081E40E94AC0140E17E
S11305B062E081E40E94CF0160E081E40E94AC012A
S11305C04FE062E081E40E94CF0161E081E40E9497
S11305D0AC014EE062E081E40E94CF0162E081E47C
S11305E00E94AC014DE062E081E40E94CF0160E230
S11305F081E40E94AC014CE062E081E40E94CF01FE
S113060063E081E40E94AC014BE062E081E40E947B
S1130610CF0164E081E40E94AC014AE062E081E43D
S11306200E94CF0165E081E40E94AC0149E062E0F0
S113063081E40E94CF0166E081E40E94AC0148E0BD
S111064062E081E40E94CF01FFCFF894FFCF67
S10F064E446F6861204D6167647900000E
S9030000FC
